:020000040800F2
:1000000078080124AD020008258D0008957E0008BF
:10001000DD8A0008FD100008D5BB000800000000C4
:100020000000000000000000000000002B9300080A
:10003000611F0008000000002D8F00081D970008B8
:10004000C7020008C7020008C7020008C70200086C
:10005000C7020008C7020008C7020008C70200085C
:10006000C7020008C7020008C7020008BD1A00083E
:10007000C91A0008C7020008D51A0008C7020008FC
:10008000C7020008C7020008C70200084121000893
:10009000C7020008C7020008C7020008C70200081C
:1000A000C7020008D9980008C7020008C702000864
:1000B000C7020008C7020008C7020008C7020008FC
:1000C000C7020008C7020008C7020008C7020008EC
:1000D000C702000871AF000859BB0008C70200083A
:1000E000C7020008C702000800000000C70200089D
:1000F000C7020008C7020008C7020008C7020008BC
:10010000C7020008C7020008C7020008C7020008AB
:10011000C7020008C7020008C7020008C70200089B
:10012000C7020008C7020008C7020008C70200088B
:10013000C7020008C7020008C7020008C70200087B
:1001400000000000000000000000000000000000AF
:10015000C7020008C7020008C7020008C9BB0008A0
:10016000C7020008C7020008C7020008C70200084B
:10017000C7020008C7020008C7020008000000000C
:10018000C7020008C7020008C7020008C70200082B
:10019000C7020008C7020008C7020008C70200081B
:1001A000C7020008C7020008C7020008C70200080B
:1001B000C7020008C7020008C7020008C7020008FB
:1001C000C7020008C7020008C7020008C7020008EB
:1001D000C7020008C7020008C7020008C7020008DB
:1001E000C7020008C7020008C7020008C7020008CB
:1001F000C7020008C7020008C7020008C7020008BB
:10020000C7020008C7020008C7020008C7020008AA
:10021000C7020008C7020008C7020008C70200089A
:10022000C7020008C7020008C7020008000000005B
:10023000C7020008C702000800000000C70200084B
:10024000C7020008C7020008C7020008C70200086A
:10025000C7020008C7020008C7020008C70200085A
:10026000C7020008C7020008C7020008C70200084A
:10027000C7020008C7020008C7020008000000000B
:10028000C7020008C7020008C702000800000000FB
:1002900000000000C7020008DFF80CD000F00AFBE5
:1002A0000048004701E60008780801240648804716
:1002B00006480047FEE7FEE7FEE7FEE7FEE7FEE74B
:1002C000FEE7FEE7FEE7FEE7FD970008990200085B
:1002D0002DE9F05F0546002092469B46884606467B
:1002E000814640241BE0284641464746224600F00E
:1002F00076F853465A46C01A914110D31146184613
:10030000224600F05DF82D1A67EB01084F462246A1
:100310000120002100F054F817EB00094E41201E87
:10032000A4F10104DFDC484631462A464346BDE8D5
:10033000F09F40EA01039B0703D009E008C9121FA0
:1003400008C0042AFAD203E011F8013B00F8013B8F
:10035000521EF9D27047D2B201E000F8012B491EBB
:10036000FBD270470022F6E710B513460A46044652
:100370001946FFF7F0FF204610BD70B506460BF09A
:100380009FFD046805460A220021304600F086F8E9
:100390002C6070BD30B50B460146002020220124A0
:1003A00009E021FA02F59D4205D303FA02F5491B43
:1003B00004FA02F52844151EA2F10102F1DC30BD59
:1003C000202A04DB203A00FA02F100207047914015
:1003D000C2F1200320FA03F3194390407047202A0A
:1003E00004DB203A21FA02F00021704721FA02F3DF
:1003F000D040C2F1200291400843194670470000E6
:100400000FB4002300B589B00CA900910B996FF0CF
:100410000042CB601E4B06931E4B07930423CDE98D
:1004200001321D4A089202466B46002000F0F4FAA1
:1004300009B05DF814FB70B586B006464FF0FF308A
:100440000091CDE90101002015460C46049032468A
:10045000694604A8FFF7D4FF02460498211825B185
:1004600008B1084600E020462860049800280DD016
:10047000002A02DD0098884208D0081B0094CDE9CC
:1004800001043246694604A8FFF7BAFF06B070BD02
:10049000510C00086F0C0008050900082DE9F04711
:1004A00091460F4680460446002614F8015B2DB1A4
:1004B00000F024FA0068405DC007F6D12B2D02D071
:1004C0002D2D18D0641E4A463946204600F0E0FB28
:1004D00027B13968A14201D1C7F8008071054FF0FA
:1004E00002040BD54042002803DD0BF0E9FC046058
:1004F000A007BDE8F08746F48066E4E70028F8DA54
:100500000BF0DEFC04606FF00040F2E72DE9FE4FD7
:10051000804681EA0300C00F0C46009021F00041A4
:1005200023F00045B8EB0200A94105D24046214620
:1005300090461C460B46024623F00040104347D02D
:10054000270DC7F30A00C3F30A510290401A019025
:1005500040286BDAC3F3130040F4801B00989246E6
:1005600020B10023D2EB030A63EB0B0B0198594631
:10057000C0F140025046FFF723FF06460D465046A5
:100580005946019A00F0A8F910EB080061410024D7
:1005900087EA115284EAE7731A4340D0009A62B3A3
:1005A000019A012A4FEA075215DC001B61EB020198
:1005B0004FF0004202EA0752CDE90042001C41F52B
:1005C000801132462B4600F0F8FB03B0BDE8F08FF7
:1005D00040462146F9E7001B61EB0201001C41F592
:1005E000801300185B412018A2F5001747EB0301A8
:1005F00040EAD570B6196D4111E06D084FEA360634
:1006000045EAC0754FEA0752001B61EB0201001C6E
:1006100041F5801149084FEA300000195141324636
:100620002B4603B0BDE8F04F00F0B8BB00980122A4
:1006300040000023D0EB020263EBE07300982146F8
:100640004FEAE074B8EB000061EB0401E9E783F0E6
:1006500000435BE781F0004158E72DE9FE4F81EA56
:10066000030404F0004421F0004100944FF0000B1B
:1006700023F0004350EA01045ED052EA03045BD049
:10068000C3F30A54C1F30A552C44A4F2F334019481
:10069000A0FB0254C1F3130141F48011C3F313030F
:1006A00043F4801301FB024400FB034E840A970AC3
:1006B00044EA815447EA8357A4FB076802958D0AF0
:1006C00005FB07854FEA932C04FB0C542705029D7C
:1006D0004FEA065847EA1637B5EB08056EEB070CEC
:1006E000870E920E47EA811742EA8312A7FB0201A6
:1006F000B6EB0B0164EB00042B0D43EA0C335E18E0
:1007000044EB1C50DA465146E7FB0201C5F31304E3
:100710004FEA0B3343EA14534FEA0432019C43EA95
:100720000603A4F10C040294009CCDE900B400F08F
:1007300044FB03B0BDE8F08F00200146F9E72DE946
:10074000F04D81EA030404F0004B21F0004514460B
:100750004FF0000A23F0004150EA050220D054EA8D
:1007600001021DD0C5F30A570246C5F31303C1F3B6
:100770001300C1F30A5640F4801543F48013A7EB2D
:100780000608101BD64608F2FD3873EB050002D3AD
:1007900008F1010801E092185B41B8F1000F03DA9B
:1007A00000200146BDE8F08D00204FF48011064680
:1007B00084460EE0171B73EB050705D3121B63EB92
:1007C000050306434CEA010C49084FEA3000921831
:1007D0005B4150EA0107EDD152EA030012D082EAF0
:1007E000040083EA0501084305D0101BAB4106D283
:1007F0000122002306E000224FF0004302E06FF0E8
:10080000010253101AEB06004CEB085110EB0A00E2
:1008100041EB0B01BDE8F04D00F0C0BAC1F30A5244
:10082000C1F3130140F2FF3341F480119A4202DA1E
:1008300000200146704740F233439A42A2F233420D
:1008400002DC5242FFF7CBBDFFF7BABD30B5041E44
:1008500071F1000404DB4FF00044404264EB0101FD
:10086000141E73F1000405DB1C464FF00043524296
:1008700063EB0403994208BF904230BD002801DBBE
:10088000C0F10040002901DBC1F10041814202D2E8
:100890004FF0004004E04FF0005001D14FF0C04055
:1008A0004FEA2062EFF3008162F31F6181F3008859
:1008B00070470000064C074D06E0E06840F0010379
:1008C00094E8070098471034AC42F6D3FFF7E8FCF1
:1008D000F807010818080108202A06DBCB17203A80
:1008E00041FA02F043EAE07306E041FA02F3D04035
:1008F000C2F12002914008431946704700487047F2
:100900003CFD000810B50446FFF7F8FF0068005DE5
:1009100000F0010010BD00002DE9FF4F087881B004
:100920009946FF2805D0491C2D2804D00024002317
:1009300008E000230BE00124F9E703EB830300EB5D
:100940004303491C0878FF28F7D104B15B4200201B
:100950000090147801462D2C01D02B2C04D1521C70
:100960002D2C12D00024009400251678FF2E0ED0D6
:100970000A24A0FB04C801FB0481002700FB071127
:10098000521C16EB0C006941EFE70124EBE7994498
:1009900050EA01020ED00024AA4D2646DFF8A882B4
:1009A00000F067FA82468B46B9F1000009DAC9F116
:1009B00000071BE001980021C0E9001105B0BDE867
:1009C000F08F074612E0F80707D022462B46304644
:1009D0004146FFF742FE0646884622462B46104611
:1009E0001946FFF73AFE04460D467F10002FEAD164
:1009F000B9F1000F324643465046594602DAFFF736
:100A00009EFE01E0FFF729FE009A0AB181F0004145
:100A1000019AC2E90001D1E72DE9FF4F1F468DB0D1
:100A2000D7E901464FF0FF382E2045464FF0000928
:100A30000B90B9696D1C0E988847396A82468847C1
:100A40000028F6D1BAF1FF3F0AD024F4D064002E7A
:100A500011DDBAF12B0F08D0BAF12D0F0BD102E046
:100A6000404611B0ABE744F48064B9696D1C0E9840
:100A700088478246761E6946600501D52D2000E034
:100A80002B208DF8000001F1010B0DF1200809E089
:100A9000B9696D1C0E98884782460F9844F400741B
:100AA000761E0560002E02DDBAF1300FF0D00B99F2
:100AB0008A453ED144F0800406E00F99681CA9F1F4
:100AC000010944F400740860B9696D1C761E0E9823
:100AD000884782463028F0D02BE00B998A4505D113
:100AE000200603D444F08004761E18E050460BF034
:100AF000CFFD08B30DF11301761E44F400748B454D
:100B000008D2AAF130000BF8010B200607D5A9F195
:100B1000010003E0200602D409F101008146A0058E
:100B200002D50F99681C0860B9696D1C0E9888473A
:100B30008246002ED1DC53E0002E51DDBAF1650F64
:100B400002D0BAF1450F4BD1A00549D5B9696D1C4A
:100B500024F44074761E0E9888478246002E0CDDE1
:100B60002B2804D0BAF12D0F07D144F48074B96951
:100B70006D1C0E9888478246761EE00501D52D2112
:100B800000E02B2108F8011BCDF82C8021E00DF1AD
:100B90002901761E44F4007488450CD2AAF1300075
:100BA00010F0FF0088F8000002D10B99884509D9A0
:100BB00008F1010806E0E00501D5244801E042F211
:100BC0000F708146B9696D1C0E98884782460F9850
:100BD0000560002E04DD50460BF05AFD0028D6D1EA
:100BE000F9690E988847FF208BF8000088F800000C
:100BF0000020069007904B466A4608A906A8FFF712
:100C00008BFEA00502D46FF001002AE714F0240F38
:100C10000AD0E00714D1DDE906123868031D3B60F5
:100C20000068C0E900120BE0DDE9060100F02DF9D3
:100C30000146E00704D13868021D3A60006801608F
:100C400028460EE7000024400000F03FF1D8FFFFE7
:100C5000426842B1016811F8013B23B1521EC0E95C
:100C60000012184670470121C160881E7047426813
:100C70005AB1C368016843B983688B4205D0491EE5
:100C8000521CC0E90012002070474FF0FF3070473F
:100C90002DE9F05F82460078002715468B460AF161
:100CA0000104B946302801D09DB113E014F8010BBE
:100CB0000127782803D0582801D045B10AE00DB1AA
:100CC000102D07D10027102514F8010B02E008258C
:100CD00000E00A250026B0460EE005FB080005FBF3
:100CE00006F1012701EB10461FFA80F8B6F5803FA8
:100CF00000D3B94614F8010B294600F0ACF80028DF
:100D0000EBDABBF1000F05D00FB1641E00E05446D2
:100D1000CBF80040B9F1000F06D00BF0D1F802215A
:100D20000160C81EBDE8F09F48EA0640FAE70029C6
:100D3000A8BF7047401C490008BF20F00100704761
:100D400010B4B0FA80FC00FA0CF050EA010404BFC1
:100D500010BC704749B1CCF1200421FA04F411FA17
:100D60000CF118BF012121430843A3EB0C01CB1D5B
:100D70004FEA00614FEA102042BF002010BC7047CC
:100D800000EBC35010440029A4BF10BC7047401CA6
:100D9000490008BF20F0010010BC704710B5141EB8
:100DA00073F1000408DA401C41F1000192185B4124
:100DB0001A4301D120F0010010BD2DE9F04D9246FB
:100DC0009B4611B1B1FA81F202E0B0FA80F2203212
:100DD0009046FFF7F5FA04460F4640EA0A0041EA5A
:100DE0000B0153465A46084313D0114653EA0100FB
:100DF00019D0C8F140025046FFF7F1FA05460E46F9
:100E0000504659464246FFF7DBFA084305D0012019
:100E100004E020463946BDE8F08D0020054346EA4F
:100E2000E0762C4337430A986305E40AA0EB0800F8
:100E30000022FD0A44EA47540A3002D50020014648
:100E4000E9E7010510196941DDE908450019694123
:100E5000BDE8F04DA2E73A2800D2303820F0200259
:100E6000412A01D3A2F13700884201D34FF0FF306D
:100E700070470EB540F2334202920022CDE90022C3
:100E80001346FFF79AFF03B000BD01F0004330B4F2
:100E900021F0004150EA010206D00A0DA2F560726D
:100EA000C1F31301002A02DC30BC00207047440F5C
:100EB00044EAC104C100E01830BC00EBC250FFF7A7
:100EC00036BF70B58C1810F8015B15F0070301D11F
:100ED00010F8013B2A1106D110F8012B03E010F89D
:100EE000016B01F8016B5B1EF9D12B0705D40023C0
:100EF000521E0DD401F8013BFAE710F8013BCB1A62
:100F0000921C03E013F8015B01F8015B521EF9D556
:100F1000A142D8D3002070BD70B53A49054600689B
:100F2000884202D0384A904202D1D1F8080302E048
:100F30003648D0F8080310F4403F11D005F02AFBE2
:100F400004466868B0F5803F06D0B0F5003F03D096
:100F5000B0F5403F27D101E0000C18E0A40822E0E2
:100F600000214FF4002004F09BFB044668688103D5
:100F7000890B18D181140C2915D2DFE801F0140671
:100F800006060606060B0D0F1113800C4000B4FB7D
:100F9000F0F408E0240906E0640904E0A40902E092
:100FA000E40900E0240A04F05FF841F203018842FA
:100FB00008D8174884422868816813D821F48071C2
:100FC000816070BD13496008884204D82868816830
:100FD00021F44071F4E71049884206D828688168F6
:100FE00021F4407141F48071EAE70C498842286895
:100FF000816804D821F4407141F40071E0E741F4C4
:101000004071DDE7002002400021024000600258EC
:10101000002D3101105E5F0020BCBE0040787D01D4
:101020002DE9F0410446006806F0EDFF08BB20689A
:101030008168224A11422FD18168D6433140491C30
:10104000816004F017F81E4B054620681D4F98423A
:1010500001D0B84201D11C4900E01C498968B8425E
:1010600001F01F0201D1194600E0014681421ED065
:10107000EAB121E006F0C7FF20B92068816831405D
:10108000491C816003F0F6FF401B02280FD920683D
:101090000068C043C0070AD0606D40F01000606572
:1010A000A06D40F00100A0650120BDE8F08120683E
:1010B0000168C943C907DDD10020F6E73F00008081
:1010C0000020024000210240002302400063025839
:1010D00000B572B62DED040B83B0B0EE410A01AA43
:1010E0006B4604A903A806F017FFDDED000A9DED8D
:1010F000010A08F01BF907B062B600BDFEE7000068
:101100002DE9F04F824600202DED028B81B0834601
:10111000FE4C00900A5C225401F800B0401CC0B2A2
:101120004028F7D3FA4F387800F18002924505D174
:10113000F8490C2200F5807000F05AFA3978DFF88F
:10114000D8939FEDF68BF74E01F5E0618A455AD1B1
:101150002078FF2838D16078FF2835D1A078FF2883
:1011600032D1E078FF282FD12079FF282CD1607967
:10117000FF2829D1A079FF2826D1E079FA2806D0C6
:10118000FB2808D0FC280DD0FD2816D01CE0E6482E
:101190000221018002E0E449A1F800B00120E34906
:1011A000088011E0D9F8000090ED070A00F5005022
:1011B00080ED120A0AF062FD06E03068C0F8C4B0A3
:1011C000A0F8C8B080F8CAB0306890ED280A90F84E
:1011D000CB3090F8CA20B7EEC00AB0F8C810D9F8E2
:1011E000000020EE080BB7EEC01BD0ED0E0A90ED0C
:1011F000050ACF480DF014FD38780C22CC4900F5D3
:10120000807000F0F5F9387800F5C06292457DD124
:1012100094F80080B4F80130E278B8F1230FDFF8D9
:1012200014C3DFF814E3C549BA4D4DD0B8F1400FEF
:10123000EDD1A3F500530E2B18D2DFE803F0070A17
:1012400021232527292C2F32353D3F419CED000AD3
:1012500001E09EED000ABCEEC00A10EE101A2971E2
:101260000B0A6B710B0CAB71090EE97160212970CF
:1012700061786970A178A970A649EA7008223CE1FA
:10128000AF491EE0AF491CE0AF491AE0AF4918E092
:1012900091ED010ADFE791ED020ADCE791ED030A27
:1012A000D9E791ED040AD6E7E82129710321697194
:1012B000594685F806B0D8E7A54902E0A54900E0FF
:1012C000A54991ED000AC6E742F20A02981A934234
:1012D0007CD00ADCA3F500530A2B77D2DFE803F0B9
:1012E000223344546677879AABBC40F6F763984242
:1012F000A0F6F7626AD00CDC012867D0022865D01E
:10130000032863D0A0F56060F63800E0F9E05DD115
:10131000B3E0012A7CD0022A7BD0032A56D0042ACB
:1013200054D1CCE0E1792079627900EB0160A179B8
:10133000090401EB0221084400EE100AB8EEC00ACD
:101340008CED000AC4E0E1792079627900EB01605C
:10135000A179090401EB0221084400EE100AB8EE5D
:10136000C00A8EED000AB3E0E1792079627900EBE2
:101370000160A179090401EB0221084400EE100A82
:101380006F48B8EEC00A0EE0E1792079627900EB8F
:101390000160A179090401EB0221084400EE100A62
:1013A0006848B8EEC00A80ED000A91E0E179207942
:1013B000627900EB0160A179090401EB0221084484
:1013C00000EE100A6048B8EEC00AECE765E0E1798B
:1013D0002079627900EB0160A179090401EB022117
:1013E000084400EE100A5948B8EEC00ADBE7E2797B
:1013F0002079637900EB0260A279120402EB0322E8
:10140000104400EE100AB8EEC00A81ED010A5FE058
:1014100036E043E0E2792079637900EB0260A2795B
:10142000120402EB0322104400EE100AB8EEC00AC8
:1014300081ED020A4CE0E2792079637900EB0260E9
:10144000A279120402EB0322104400EE100AB8EE57
:10145000C00A81ED030A3BE0E2792079637900EB71
:101460000260A279120402EB0322104400EE100A7B
:10147000B8EEC00A81ED040A2AE02079387027E02E
:101480002079012822D1284908803449096801F5CA
:10149000005181F854002549088017E0207901287F
:1014A00006D03268012082F8C00081F802B00DE059
:1014B0003268042082F8C0000120887006E020799C
:1014C000012803D0022801D101200870009808B13A
:1014D0000AF0D4FB60202870607808226870A07839
:1014E000A870E078E8702079287160796871A07937
:1014F000A871E079E8710749387800F5B06000F02C
:1015000077F8BAF5407F504661D029E020040024E6
:10151000080000240900002494010024AE47E17A69
:1015200014AEF73FB40100244C0000243202002422
:10153000D4F60024280200242C0200244C020024AB
:101540002002002424020024180200241C0200248B
:1015500000020024080200240C0200249001002450
:1015600008DC80280FD0BAF5007F38D11E480DF076
:10157000A1FE08E0B0F5806F2DD0BAF5A06F2ED196
:1015800019480DF0C1FD306890ED280A90F8CB3075
:1015900090F8CA20B7EEC00AB0F8C810D9F8000019
:1015A00020EE080BB7EEC01BD0ED0E0A90ED050A39
:1015B0000E480DF035FB387801B00C490C2200F5CF
:1015C0008070BDEC028BBDE8F04F00F011B806480A
:1015D0000DF098FED7E704480DF0FCFDD3E701B00D
:1015E000BDEC028BBDE8F08F20040024D4F600246B
:1015F00000B589B000900020082A0190029007D021
:101600000C2A02D0102A02D003E0092200E00A22AC
:1016100003924FF480120890CDE904025200CDE904
:10162000062003480A46694602F0C8FE09B000BD1C
:10163000880400242DE9F74F2DED048B84B041F28E
:10164000883B0024DFF8E0909FED388A9FED350A53
:10165000DFF8DCA0D9F80400DFF8D880B0EE489AB3
:1016600080ED110AF0EE488ADAF80000816841F056
:1016700008018160002002F04DFED8F884108EB27F
:10168000D8F88010D8F888008DB2314687B22A4643
:1016900029A03B460AF0E0FB022C11D300EE106AB1
:1016A000B8EE400A39EE009A00EE105AB8EE400A41
:1016B00078EE808A00EE107AB8EE400A38EE008AA2
:1016C000641CA4B25C45CFD308989FED1F0AC9EEF5
:1016D000000AC0ED000AC8EE800A0998C0ED000AB1
:1016E000C8EE000A0A98C0ED000AD9F8040090ED8F
:1016F000100AB7EEC00A8DED020B90ED0F0AB7EE9F
:10170000C00A8DED000B90ED0E0A10A0B7EEC00AD6
:1017100053EC102B0AF0A0FB04B0BDEC048BBDE829
:10172000FE8F000006345338B00100240000000092
:101730001803002400200240256420202025642076
:10174000202025640D0A000000309C45506861731C
:10175000652043757272656E74204F66667365749A
:101760003A613A256620623A256620633A25660D7D
:101770000A00000010B5254C00219FED230A4FF40C
:101780007A722DED048BF0EE408AB0EE408A6068EC
:10179000491C9142D0ED140A90ED141A00EE810A12
:1017A000D0ED180A90ED181A40EE818AD0ED1C0A8F
:1017B00090ED1C1A00EE818AEADB9FED159AC0EECF
:1017C000090AB7EEE00A0AF06BFDB7EEC00B6068DD
:1017D00080ED2B0A88EE890AB7EEC00A0AF060FD98
:1017E000B7EEC00B606880ED2C0A88EE090AB7EEF0
:1017F000C00A0AF055FDB7EEC00B606880ED2D0AF7
:10180000BDEC048B10BD000000000000B0010024FE
:1018100000007A4410B591ED000AD2ED000A9FED68
:101820000E1A029C70EE200A90ED000A20EE010ACA
:101830009FED0A1A00EEC10A83ED000A91ED000A3D
:10184000D2ED000A30EE600ADFED050A20EE200A34
:1018500084ED000A10BD0000ABAA2A3FABAAAA3E45
:101860003ACD133F30B58A4C2DED028B81B0206804
:1018700000F1900100910B1F00F1700230395030DF
:10188000FFF7C8FF834D286890ED040A0BF0DCFADF
:101890002868F0EE408A90ED040A0BF099FA20686F
:1018A000B0EE408A90ED230AD0ED240A20EE080A1B
:1018B00008EEA00A80ED250A90ED240AD0ED230A57
:1018C00020EE080A08EEE00A80ED260A90ED280ACC
:1018D000DFED710AD0ED261A20EE201A9FED6F0A77
:1018E00000F1BC0101EE801A80ED281A90ED281A53
:1018F00061EE200A90ED251A41EE000AC0ED270A9C
:1019000090ED000AB8300CF04FFE2068644C90ED6A
:101910002E0AD0ED250A94ED1B1A70EE603A90ED78
:101920002F0AD0ED260A30EE603A94ED1E0A01EE41
:10193000230A84ED1E0AD4ED1F0A41EE030AC4ED0A
:101940001F0A90ED131A9FED574A61EE041A9FED9E
:10195000561AB4EEE10AF1EE10FA04DD90ED130A26
:1019600020EE040A0CE0D0ED131A61EE811AB4EEF9
:10197000E10AF1EE10FA05D290ED130A20EE010A09
:1019800084ED1E0A90ED130A20EE040AF4EEC00A5C
:10199000F1EE10FA90ED130A02DD20EE040A0AE0DF
:1019A00020EE010AF4EEC00AF1EE10FA05D290ED35
:1019B000130A20EE010A84ED1F0A3C49027B9FEDC9
:1019C0003C2B00EE102A0968B8EE400AD1ED0B0A54
:1019D00020EEC00AD0ED060A20EE200AD0ED2F0A34
:1019E00020EE200A84ED110A91ED0B1A017BD0ED57
:1019F000060A00EE101AB8EE400A21EE000AB7EE11
:101A0000C11A20EE200AD0ED2E0A20EE200A21EE87
:101A1000021BB7EEC00A02EE101A2149B8EE422BA3
:101A2000403101EE020BB7EEC00B84ED120AD4ED8B
:101A30001E0A94ED190A40EE230AC4ED0F0AD4EDF4
:101A40001F0A40EE030AC4ED100A90ED130A081FA6
:101A500020EE040A0CF0A8FD17480078012812D1E6
:101A600094ED0F0A94ED101A01B060EE280A20EEF2
:101A7000080A48EE010A08EEC10ABDEC028BBDE877
:101A8000304007F053BC01B0BDEC028B30BD00000C
:101A9000B401002490010024CDCCCC3E9A99193F8A
:101AA000D00A00243333933F333393BFF40100242F
:101AB000D192C7D3F203773F4A000024014801F0D6
:101AC0007DBD000070080024014801F077BD0000D2
:101AD000E8080024014801F071BD000060090024FD
:101AE00010B52A4A016891423AD0284A18329142E8
:101AF00036D0264A3032914232D0244A483291427E
:101B00002ED0224A603291422AD0204A7832914225
:101B100026D01E4A9032914222D01C4AA8329142CD
:101B20001ED01B4A91421BD0194A1832914217D03D
:101B3000174A3032914213D0154A483291420FD0A1
:101B4000134A603291420BD0114A7832914207D049
:101B50000F4A9032914203D00D4AA832914211D1DE
:101B6000CAB20C4C1823103AB2FBF3F26FF309011E
:101B700002F00703032AE35CC36500D9091D8165F0
:101B8000084610BD21F0FF01F9E7000010000240F7
:101B90001004024098F3000810B501680123224C9C
:101BA000CAB2A1421BD0204C1434A14217D01E4C03
:101BB0002834A14213D01C4C3C34A1420FD01A4C03
:101BC0005034A1420BD0184C6434A14207D0164CBB
:101BD0007834A14203D0144C8C34A1420FD114218B
:101BE000083AB2FBF1F1114A02EB810202660F4A98
:101BF00001F01F0180328B40C0E9192310BD182469
:101C0000103AB2FBF4F20A4C2144A82900D8083259
:101C1000084901EB8201016606498031416602F004
:101C20001F018B40836610BD0854025800580258AB
:101C3000F0FBFDBF0008024010B50279531E072BD0
:101C400030D8194C0168A1421BD0174C1434A14262
:101C500017D0154C2834A14213D0134C3C34A14268
:101C60000FD0114C5034A1420BD00F4C6434A14220
:101C700007D00D4C7834A14203D00B4C8C34A142D8
:101C800006D10A4901EB8201C1660849443105E0E9
:101C9000074901EB8201C166054944310167012111
:101CA0009940416710BD000008540258FC58025882
:101CB000FC080240014610B500208B694FF0C0744B
:101CC0008A6A53B1B3F5005F15D072B1012A0CD006
:101CD000022A0AD0032A09D104E01AB1012A06D047
:101CE000022A03D1C96AC90100D5012010BDC96A01
:101CF000A142FAD010BD002AF7D0012AF2D0022A60
:101D0000F3D0032AF3D010BD2DE9F04F834E834F5B
:101D1000DFF808C24836DFF80492DFF800A20CF1C1
:101D2000180CDFF8F8B109F13009DFF8F0E10AF139
:101D3000600A04680BF1780B856D0EF1900EBC42C1
:101D40006DD064456BD04C4569D0B44267D05445E2
:101D500065D05C4563D0744561D0DFF8C08108F17F
:101D6000A80844455BD0DFF8B881444557D0DFF878
:101D7000B08108F11808444551D0DFF8A48108F17A
:101D8000300844454BD0DFF8988108F148084445B5
:101D900045D0DFF88C8108F1600844453FD0DFF87A
:101DA000808108F17808444539D0DFF8748108F162
:101DB0009008444533D0DFF8688108F1A80844450D
:101DC0002DD0DFF86081444529D0DFF8588108F133
:101DD0001408444523D0DFF84C8108F12808444515
:101DE0001DD0DFF8408108F13C08444517D0DFF8EA
:101DF000348108F15008444511D0DFF8288108F1FA
:101E0000640844450BD0DFF81C8108F1780844458C
:101E100005D0DFF8108108F18C08444509D1D0E9DC
:101E20001948C4F80480C46E1CB1D0E91C48C4F839
:101E300004800468BC422ED064452CD04C452AD086
:101E4000B44228D0544526D05C4524D0744522D0D5
:101E5000324EA836B4421ED0314EB4421BD0304E62
:101E60001836B44217D02E4E3036B44213D02C4E12
:101E70004836B4420FD02A4E6036B4420BD0284EBA
:101E80007836B44207D0264E9036B44203D0244E62
:101E9000A836B44215D190F85C4004F01F063F24E8
:101EA000B440AC600468256825F4802525602EE0E8
:101EB0009A600068C160BDE8F08F99600068C260F8
:101EC000F9E7184EB4421BD0164E1436B44217D060
:101ED000144E2836B44213D0124E3C36B4420FD0C2
:101EE000104E5036B4420BD00E4E6436B44207D07A
:101EF0000C4E7836B44203D00A4E8C36B442DAD156
:101F000090F85C4004F01F060124B4406C60046843
:101F100063608368402B0368CFD1C9E7100002409B
:101F200010040240085402580948016841F08071C9
:101F300001600949074808600021084841600168BC
:101F400041F0010101604068002800D00120704785
:101F5000FCED00E055CEACC5B01F00E0001000E085
:101F600070470000D0ED0B0A30EEC00A80ED0D0A7C
:101F700090ED0D0A90ED081AF0EEC00A9FED2D0AC3
:101F8000F4EEC10AF1EE10FA05D22B49096891F876
:101F9000C01001294AD0D0ED000A90ED0D1A60EE74
:101FA000810AC0ED030A90ED031AD0ED090AD0EDC5
:101FB0000A1A00EEA11A80ED0F1AD0ED070AF0EE12
:101FC000C11AF4EEE01AF1EE10FA23DC90ED040AE7
:101FD000D0ED011A90ED0D2A01EE820A80ED040A7F
:101FE00030EEC10AD0ED041AB4EEE10AF1EE10FAB7
:101FF00001DD90ED040A80ED040AB1EE600AD0ED37
:10200000041A30EE410AB4EEE10AF1EE10FA01D200
:1020100090ED040A80ED040A90ED040A31EE000A06
:1020200080FE600AF1EE600A80FE200A80ED0F0A51
:102030007047000000000000B4010024354A70B56C
:102040004FF0807690687410DFED330A0021C0E90C
:102050000064C0ED020A41628162416300F50053F1
:102060009FED2E0AC162102580ED040A9FED2C1A07
:1020700080ED100A83ED111A9FED2A1A83ED121AD2
:1020800080ED0E0A80ED050A85810D25857383F8A4
:102090005510D068C0E90064C0ED020A4162416396
:1020A00000F50053C16280ED040A80ED100A83ED53
:1020B000110A80ED0E0A80ED050A8181857383F88F
:1020C0005510106980ED000A80ED030A80ED040AC6
:1020D00080ED010A80ED020ABFEE000A80ED050ADC
:1020E0009FED110A80ED060A9FED100A80ED070AA8
:1020F0009FED0F0A80ED080A0E489168006848625B
:102100008862C8620C48D168006848628862C86208
:1021100070BD000088010024000080330000000032
:102120003814DC3FCB61A84300004842B81E594038
:1021300050DDB843240000242000002472B6FEE7DE
:10214000014802F069BA00008804002430B5036831
:10215000426B53F8844F4FF6FC718C4344EA82047F
:102160001C60036853F8844F058F24F47F0444EA0D
:1021700005441C60836B1A440368D3F888408C4381
:1021800044EA8204C3F88840036853F8884F858F77
:1021900024F4FE0444EA05441C60C36B02EB4302D2
:1021A0000368D3F8A0408C4344EA8204C3F8A040FB
:1021B000036853F8A04FB0F8405024F4FE0444EAFA
:1021C00005441C60D0E9103403FB04220368D3F8F3
:1021D000B0408C4344EA8204C3F8B040036853F82B
:1021E000B04FB0F8485024F4FE0444EA05441C60A3
:1021F000D0E9123403FB04220368D3F8AC408C43CB
:1022000044EA8204C3F8AC40D0E9143403FB04224E
:102210000368D3F8F0408C4344EA8204C3F8F040EA
:10222000036853F8F04FB0F8585024F47C1444EA93
:1022300005441C60836D02EB43030268D2F8C04082
:102240008C4344EA8301C2F8C010016851F8C02FE2
:10225000B0F85C3022F47C1242EA03420A60016862
:1022600051F8C02F90F8603022F07C5242EA0362AD
:102270000A60416B234A02EB8101C166826B01EB6C
:1022800082020267C36B02EBC3024267D0E91034DB
:10229000634302EB83028267D0E91234634302EBAB
:1022A0008302C267D0E91434634302EB8302C0F8AF
:1022B0008020836D02EBC302C0F88420C46D836E5E
:1022C0005C4302EB8402C0F88820046E5C430E4B32
:1022D00002EB8402C0F890209A420AD9D0F89C10F0
:1022E00041F02001C0F89C10032180F898100120D3
:1022F00030BD002200E004C1D0F890308B42FAD803
:10230000002030BD00AC0040FCD30040F0B5D1E966
:1023100001650C692C430D68CEB145F080452C4316
:1023200091F82070D1E9066535434E6946EA0766A3
:1023300035438E8945EA0645D0F88460806E58435F
:1023400006EB80030020E3E80245094C0AE044EA7A
:102350008544E5E71618155C001DD6F8016045EACE
:10236000062520C3CD68655D8542F3D8F0BD000029
:10237000A0F3000830B50F4B4FF08404CD0744EABA
:10238000002007D0DC6824F4E664DC60DC681443D9
:102390000443DC6089070BD5D3F80C1121F4E66106
:1023A000C3F80C11D3F80C1111430143C3F80C11FD
:1023B00030BD000000200052CA4393071C4A20D0C1
:1023C000CB070AD0D36823F03003D360D36803432C
:1023D000D360D36843F08803D360890710D5D2F85F
:1023E0000C1121F03001C2F80C11D2F80C1101438C
:1023F000C2F80C11D2F80C0140F08800C2F80C01B0
:102400007047D16821F03001D160D2F80C1121F071
:102410003001C2F80C11D1680143D160D2F80C111F
:102420000143C2F80C11906940F0100090617047B0
:10243000002000522DE9F04704240E46074602F022
:1024400019FE022E804600D1264CDFF89CA0274DB5
:1024500004EA0A09B9F1000F2BD0D5F8100124EADB
:1024600000004000C8B1012E27D0D5F81001204946
:10247000084040F00040410023D01E4A91690143CA
:10248000916110EA0A0F01D1686103E020F0004079
:10249000C5F814010120BDE8F087781CDAD002F0FD
:1024A000E9FDA0EB0800B84201D8002FD2D10320EB
:1024B000F1E7286924EA0000D4E728690E490840BA
:1024C000D9E7012E4FF4803007D0D5F81011C90399
:1024D00001D5C5F814010020DDE72969C903FAD543
:1024E0006861F8E704000080F0FF10E0002000526F
:1024F0000000EE97B40A00240000EE1700B587B084
:102500000022CDE9021001200092049020206946AB
:102510000192059001A802F08FFB07B000BD0000FA
:1025200010B502F08BFC002805D10449024848612F
:10253000C1F81401002010BD0000EE170020005269
:1025400070B50446006805F06AFD0546206805F090
:1025500056FD55EA000101D0012070BD2068C16818
:10256000034A114041F00041C160002070BD0000ED
:10257000FFFFDF7F2DE9F84F04464FF00008DFF83A
:10258000ECB30D46CDF80080C24694F8502040468A
:10259000DFF8DC93F74E012AE1680AD0F64A0127FA
:1025A00084F8507041B1296A012905D0236EEBB13E
:1025B00029E00220BDE8F88F6868092838D1A96AA7
:1025C0004FF4785041B12B6801F07C0100EA534090
:1025D0000843E96A084302E0296800EA514021689B
:1025E000CB6C13400343CB64E06521E0C4E917A141
:1025F000A96A286A31B1401E01F07C010843E96AEA
:10260000084300E0401E2968C1F38463297901F082
:102610001F018B40216E0343491E2166E06D40EA95
:102620000300E06504D12168CB6C13400343CB6405
:10263000206805F0E4FCE0B9286800280DDB21687B
:10264000CA69030320D090FAA0F0B0FA80F000F03D
:102650001F0007FA00F00243CA6195F82500B0B1E7
:102660002068C16895F8262021F4401141EA4251C2
:10267000C160206805F0D3FC0090206805F0BFFC25
:102680000099014310D0E7E0C0F38460DFE795F8DC
:10269000260095F82410400540EA01512068C268E0
:1026A00022F440121143E3E7A86A30B1E86A20B18E
:1026B00095F82500012828D003E095F82500012889
:1026C00004D02068C16821F0007103E02068C1686F
:1026D00041F00071C16095F830000128206801695F
:1026E0001AD021F002010161AA682968206805F06A
:1026F0009AFCA2480068B7EB107F17D16B6920687D
:10270000C068C0F38200400019E0606D40F0200016
:1027100060654FF00108DEE7994A9A4B1140AA8E96
:1027200003EB02421143AA6B1143DCE72068C16846
:102730006B69C906E4D5C06800F01000400829693B
:102740008340042914D02A68206805F07BFC297F87
:1027500022682869012908D0002102EB8000026E5E
:1027600022F000420A43026676E04FF00041F4E7AF
:102770002068002105F039FC000320684FF00001BB
:1027800071D005F032FC90FAA0F0B0FA80F02A681F
:1027900011036DD092FAA2F1B1FA81F1884204D10D
:1027A00000232068194605F04DFC2068012105F042
:1027B0001CFC000320684FF001015CD005F015FC03
:1027C00090FAA0F0B0FA80F02A68110358D092FA7B
:1027D000A2F1B1FA81F1884204D1206800230121DD
:1027E00005F030FC2068022105F0FFFB00032068A3
:1027F0004FF0020147D005F0F8FB90FAA0F0B0FAD4
:1028000080F02A68110343D092FAA2F1B1FA81F163
:10281000884204D120680023032105F013FC2068BE
:10282000032105F0E2FB000320684FF0030132D0E2
:1028300005F0DBFB90FAA0F0B0FA80F02A681103F3
:102840002ED092FAA2F1B1FA81F1884204D1206827
:102850000023032105F0F6FB206805F0D8FB10B338
:10286000D7E000E004E005F0C0FBC0F384608EE731
:10287000C2F3846192E705F0B8FBC0F38460A3E77C
:10288000C2F38461A7E705F0B0FBC0F38460B8E74A
:10289000C2F38461BCE705F0A8FBC0F38460CDE718
:1028A000C2F38461D1E720682A7B296850F8C03FD1
:1028B000C1F3130C23EA0C0302F0180C324A22FA7B
:1028C0000CF20A4013430360E96859456FD1286848
:1028D00001031AD090FAA0F1B1FA81F1491C01F07C
:1028E0001F0109294FEA003130D8002910D090FA91
:1028F000A0F1B1FA81F101F1010101F01F0107FA24
:1029000001F708D1C0F3846109E0C0F38461E5E711
:10291000C0F38461EFE790FAA0F1B1FA81F101F11F
:10292000010101F01F0147EA816102D1C0F3846017
:1029300003E090FAA0F0B0FA80F000F1010000F09E
:102940001F0000EB400041EA005142E000291DD089
:1029500090FAA0F1B1FA81F101F1010101F01F013A
:1029600007FA01F715D1C0F3846116E00000FF47B4
:102970000060025800210240004010040010005C7A
:102980001DFE00FC0200FFFFFFFF0F00C0F384618B
:10299000E2E790FAA0F1B1FA81F101F1010101F051
:1029A0001F0147EA816103D1C0F3846004E014E0B1
:1029B00090FAA0F0B0FA80F0424A00F1010000F075
:1029C0001F0000EB400002EB005041EA000141F023
:1029D0000071AA68206805F026FB2A68002A18DA28
:1029E000394D2068A84201D0B04207D1A968B36828
:1029F000C1F30001C3F30003194303E0D9F8081041
:102A0000C1F3000149B1606D40F0200060654FF0F6
:102A1000010884F850A04046CCE52C4BA8422C4F2E
:102A200001D0B04201D1194600E039468968DFF88B
:102A3000A4C001F0E07162451DD15FEA012C1AD4F7
:102A40004845E6D1A84202D0B04200D03B4641F40E
:102A50000000996821F0E071014399601E481F4908
:102A60000068B0FBF1F04000801C00E0401E0090C8
:102A70000028FBD1CDE7DFF868C062450CD15FEAE2
:102A8000C11C09D44845C4D1A84202D0B04200D0EC
:102A90003B4641F080700EE0DFF848C06245B8D197
:102AA0004A02B6D44845B4D1A84202D0B04200D0C0
:102AB0003B4641F48000996821F0E0710143996040
:102AC000A7E70000000020FE002002400023024093
:102AD00000630258000084CB38000024400D03003E
:102AE000000052C70000B8CF2DE9F041384E04462F
:102AF0000068384FB04201D0B84201D1364900E0F9
:102B00003649896801F01F0505F079FA08BB20688D
:102B1000C168C06C01F0004100F4C070084312D0DD
:102B200094F85000012814D0012084F85000204669
:102B3000FEF776FA01004FF000030CD084F8503015
:102B40000846BDE8F081606D40F02000606501201E
:102B5000F7E70220F5E7606DC00504D5A06D20F011
:102B60000800A06500E0A365606D42F20102904399
:102B700040F4805060652068B84201D1324600E0E0
:102B80000246824200D01DB9626D22F48012626555
:102B90006022026084F850302068B84200D00646B7
:102BA000864209D045B1062D06D0072D04D0606DB0
:102BB00040F480106065C3E7C26812F0007FBFD1A7
:102BC0008268074B1A4042F008028260B8E70000B2
:102BD000002002400021024000230240006302580E
:102BE000C0FFFF7F2DE9F047044690F850009AB0EF
:102BF0000D4601284FF0000922D0012084F8500032
:102C0000002715971697DFF8E0802168414519D114
:102C1000364E0096304605F002FA8246206805F0EE
:102C2000FEF950EA0A0115D0606D40F020006065A1
:102C30004FF0010984F8507048461AB0BDE8F0879B
:102C40000220FAE7606D40F020006065012084F802
:102C50005070F2E720684346984201D0B04201D15B
:102C6000234800E0234840F61F722968DFF888C037
:102C70000029816821F440411ED0D5F8048041EA42
:102C8000080181602168994201D0B14207D1996859
:102C9000B368C1F30001C3F30003194303E0DCF898
:102CA0000810C1F300010029C4D1AB682968194399
:102CB00083689343194315E081602168994201D0EC
:102CC000B14207D19968B368C1F30001C3F30003AF
:102CD000194303E0DCF80810C1F300010029A9D171
:102CE000816891438160A5E70020024000210240F5
:102CF000002302400063025800600258F8B54FF00C
:102D0000000504002E46009502D0606D10B107E06A
:102D10000120F8BD204600F001F9A66584F8506056
:102D200020688168C1F3407119B181686E4A114011
:102D3000816020688168C1F3007181B981686B4A44
:102D4000114041F08051816069486A490068B0FBD8
:102D5000F1F0401C00E0401E00900028FBD12068EC
:102D60008168C1F3007141B9616D41F01001616585
:102D7000A16D41F00101A165012505F04CF9616DDE
:102D800001F010010143606D05D040F01000606556
:102D900001252846F8BD20F4807040F002006065EF
:102DA000206805F030F900BB534A2068534B90422D
:102DB00001D0984207D191689E68C1F30001C6F323
:102DC0000006314303E04E498968C1F3000161B94F
:102DD000904201D0984201D14A4800E04A486168D7
:102DE000826822F47C120A43826002F03DF941F2CB
:102DF0000301884202D9A06810280CD0A168206B7A
:102E0000227F0843617D490341EA02410843D1B270
:102E100001290CD010E0617D227F206B490340F036
:102E2000100041EA0241084340F00C00EFE7218C1A
:102E3000364A02EB41410843616A29B1A26A01F4B2
:102E40007871014342EA01002168CA68304B1A4098
:102E50000243CA60206805F0DEF80646206805F0E7
:102E6000CAF806431DD1217DE06A40EA813120681D
:102E7000C26844F203039A430A43C26094F83800DC
:102E8000012816D02068016921F001010161206844
:102E90000169626B21F07041114301612046FEF728
:102EA0003BF8E06801282068016B21F00F0110D089
:102EB00012E0D4E91010A28F164B0143A06C03EB73
:102EC00002421043014320680269134B1A40114328
:102ED000DCE7A269521E11430163606D20F002001D
:102EE00040F00100606554E7C0FFFF5FC0FFFF7F57
:102EF00038000024400D0300002002400021024061
:102F00000060025800230240006302580000FEFFE8
:102F100003C0F0FF0100FFFF1EF800FCF0B587B012
:102F2000044614216846FDF71DFA2A4B00252A485D
:102F3000274F2268083019680324274E491CBA42DB
:102F400027D10129196007D1316841F02001316092
:102F5000316801F020010591016841F00101016033
:102F6000016801F001010591016841F0040101606F
:102F70000068694600F004000590C0208DE831002B
:102F8000164801F07DFF302069468DE83100144875
:102F90001AE0144FBA4219D10129196007D13168DA
:102FA00041F020013160316801F020010591016894
:102FB00041F00201016000686946009400F00200DF
:102FC00005900948CDE9014501F05AFF07B0F0BD71
:102FD0000020024004000024D84402580000025897
:102FE0000008025800210240000402582DE9F84F61
:102FF000044602F03FF8009034B194F835000228FE
:1030000005D080206065EBE00120BDE8F88FCC4E54
:10301000CB4FCB491836DFF828833037DFF82093C1
:10302000DFF81CA308F14808DFF814B309F16009C0
:1030300020680AF1780A0BF1900B88422ED0B0423A
:103040002CD0B8422AD0404528D0484526D05045FB
:1030500024D0584522D0BA4AA83290421ED0B94A4C
:1030600090421BD0B74A1832904217D0B54A30323E
:10307000904213D0B34A483290420FD0B14A6032E6
:1030800090420BD0AF4A7832904207D0AD4A90328E
:10309000904203D0AB4AA832904209D1026822F094
:1030A0001E0202602068426922F08002426103E051
:1030B000026822F00E02026025688D4228464DD03B
:1030C000B0424BD0B84249D0404547D0484545D0A2
:1030D000504543D0584541D0994AA83290423DD0FE
:1030E000984A90423AD0974A1832904236D0954A40
:1030F0003032904232D0934A483290422ED0914A98
:10310000603290422AD08F4A7832904226D08D4A3F
:103110009032904222D08B4AA83290421ED08A4AE6
:1031200090421BD0884A1432904217D0864A2832E7
:10313000904213D0844A3C3290420FD0824A50329F
:1031400090420BD0804A6432904207D07E4A783257
:10315000904203D07C4A8C32954204D1206E0268A2
:1031600022F48072026076492068884228D0B042FA
:1031700026D0B84224D0404522D0484520D05045E2
:103180001ED058451CD06E49A831884218D06D49D0
:10319000884215D06B491831884211D069493031C5
:1031A00088420DD067494831884209D0654960316D
:1031B000884205D063497831884201D06149903115
:1031C000016821F0010101600EE001F053FF009958
:1031D000401A052808D920206065032084F83500AE
:1031E000002084F834000FE72868C007EDD1544A66
:1031F0000121206890422ED0B0422CD0B8422AD073
:10320000404528D0484526D0504524D0584522D0A6
:103210004B4BA83398421ED04A4B98421BD0494B87
:103220001833984217D0474B3033984213D0454B50
:10323000483398420FD0434B603398420BD0414BF8
:103240007833984207D03F4B9033984203D03D4BA0
:10325000A833984208D194F85C30A06D03F01F05A4
:103260003F23AB40836007E094F85C30A06D03F02F
:103270001F0301FA03F34360206890424DD0B0422F
:103280004BD0B84249D0404547D0484545D050453D
:1032900043D0584541D02A4AA83290423DD0294ACD
:1032A00090423AD0274A1832904236D0254A3032DE
:1032B000904232D0234A483290422ED0214A603286
:1032C00090422AD01F4A7832904226D01D4A90322E
:1032D000904222D01B4AA83290421ED01A4A9042F5
:1032E0001BD0194A1432904217D0174A2832904204
:1032F00013D0154A3C3290420FD0134A50329042BC
:103300000BD0114A6432904207D00F4A7832904273
:1033100003D00D4A8C3290420BD1D4E9190242609D
:10332000E06E30B1026822F480720260D4E91C02BF
:10333000426084F83510002084F8340065E600000F
:103340001000024010040240085402582DE9F05FBA
:1033500028B190F83510022904D080214165012060
:10336000BDE8F09F914A914B914D1832904E303309
:10337000DFF838C21835DFF834E24836DFF830922B
:10338000DFF82CA20EF1600EDFF824B209F130094B
:1033900001680AF1600A864C0BF1A80B614529D03F
:1033A000914227D0994225D0804F4837B94221D049
:1033B00071451FD07D4F7837B9421BD07B4F903776
:1033C000B94217D0794FA837B94213D0A14211D0D2
:1033D000A9420FD049450DD0B1420BD0514509D07B
:1033E000734F7837B94205D0714F9037B94201D049
:1033F00059452FD1042780F83570614525D0914279
:1034000023D0994221D06948483081421DD071456E
:103410001BD066487830814217D064489030814292
:1034200013D06248A83081420FD0A1420DD0A942EA
:103430000BD0494509D0B14207D0514505D05C4871
:103440007830814201D05A489030086820F001005D
:103450000860A8E0D1F8008028F00E08C1F80080CC
:103460000168E04641452BD0914229D0994227D0AE
:10347000DFF838C10CF1480C614521D071451FD0EF
:10348000DFF828C10CF1780C614519D0DFF81CC1B8
:103490000CF1900C614513D0DFF810C10CF1A80CB1
:1034A00061450DD0A1420BD0A94209D0494507D0B2
:1034B000B14205D0514503D0DFF8F4C00CF1780CCF
:1034C000D1F800C02CF0010CC1F800C001684FF029
:1034D000010C414546D0914244D0994242D0334AF2
:1034E000483291423ED071453CD0304A78329142C8
:1034F00038D02E4A9032914234D02C4AA832914290
:1035000030D0A1422ED0A9422CD049452AD0B14278
:1035100028D0514526D0264A7832914222D0B9424D
:1035200020D059451ED0234A91421BD0214A143243
:10353000914217D01F4A2832914213D01D4A3C3283
:1035400091420FD01B4A503291420BD0194A64323B
:10355000914207D0174A7832914203D0154A8C32F3
:10356000914218D1016E0A6822F480720A6090F8C4
:103570005C20816D02F01F020CFA02F24A60D0E971
:1035800019124A60C16E31B10A6822F480720A6071
:10359000D0E91C124A6080F835C0002180F8341050
:1035A000016D01B188470020DAE6000010000240FA
:1035B0001004024008540258406D70472DE9FC5F2A
:1035C0000446002000904FF41651F9480068B0FB03
:1035D000F1F00190A56D2E682A68F64FDFF8D483CC
:1035E000DFF8D0A3DFF8CCB308F1180820680AF19F
:1035F000300ADFF8C4930BF1480BB84238D041468B
:10360000884235D0504533D0584531D0E9496031F2
:1036100088422DD0E7497831884229D0E549903158
:10362000884225D0E349A831884221D048451FD09F
:10363000E149183188421BD0DF493031884217D028
:10364000DD494831884213D0DFF86CE30EF1600E9B
:1036500070450DD0D84B7833984209D0DFF858C365
:103660000CF1900C604503D0D349A83188427DD13C
:1036700094F85C10082301F01F0103FA01F23242B2
:103680004CD0B84233D0404531D050452FD058456A
:103690002DD0C8496031884229D0C6497831884246
:1036A00025D0C4499031884221D0C249A8318842EE
:1036B0001DD048451BD0C0491831884217D0BE499B
:1036C0003031884213D0BC49483188420FD0BA49C2
:1036D000603188420BD0B8497831884207D0B6496A
:1036E0009031884203D0B449A831884203D101689F
:1036F00001F0040102E0016801F0080171B1016804
:1037000021F00401016094F85C0000F01F0003FA4E
:1037100000F2AA60606D40F00100606594F85C0002
:10372000012100F01F008140314241D02068B842A1
:1037300035D0404533D0504531D058452FD09D4AE3
:10374000603290422BD09B4A7832904227D0994ADF
:103750009032904223D0974AA83290421FD04845D9
:103760001DD0954A1832904219D000E0B3E1924A38
:103770003032904213D0904A483290420FD08E4A55
:10378000603290420BD08C4A7832904207D08A4AFD
:103790009032904203D0884AA83290427ED140694C
:1037A00010F0800F04D0A960606D40F002006065E9
:1037B00094F85C00042100F01F00814031423FD0AA
:1037C0002068B84233D0404531D050452FD05845BD
:1037D0002DD0784A6032904229D0764A7832904291
:1037E00025D0744A9032904221D0724AA832904239
:1037F0001DD048451BD0704A1832904217D06E4AEF
:103800003032904213D06C4A483290420FD06A4A0C
:10381000603290420BD0684A7832904207D0664AB4
:103820009032904203D0644AA83290424FD100684F
:1038300010F0020F04D0A960606D40F004006065D4
:1038400094F85C00102100F01F008140314259D0F3
:103850002068B84235D0404533D0504531D0584526
:103860002FD0544A603290422BD0524A7832904244
:1038700027D0504A9032904223D04E4AA8329042EC
:103880001FD048451DD04C4A1832904219D04A4AA0
:103890003032904215D0484A483200E015E090425C
:1038A0000FD0454A603290420BD0434A7832904262
:1038B00007D0414A9032904203D03F4AA83290420A
:1038C00007D1006800F0080006E0006870E70068B3
:1038D000B6E7006800F00400A0B1A96020680168A4
:1038E000490304D50068000308D5A16C07E001680E
:1038F000C90503D4016821F008010160216C09B1F8
:103900002046884794F85C00202100F01F00814089
:10391000314278D02068B84233D0404531D050454C
:103920002FD058452DD0234A6032904229D0214AC9
:103930007832904225D01F4A9032904221D01D4AC1
:10394000A83290421DD048451BD01B4A18329042E5
:1039500017D0194A3032904213D0174A4832904259
:103960000FD0154A603290420BD0134A7832904201
:1039700007D0114A9032904203D00F4AA8329042A9
:1039800003D1006800F0100002E0006800F00200BF
:10399000A0B3A96094F835000428206801680DD010
:1039A00049037CD50068000329D4616C28E000003D
:1039B00038000024100002401004024021F01601DB
:1039C00001602068416921F080014161206C08B9E3
:1039D000A06C20B12068016821F00801016094F812
:1039E0005C0000F01F013F208840A860012084F89F
:1039F0003500002084F83400216D65E003E0E16BC0
:103A000009B120468847606D00287DD0606DC007F1
:103A100059D0042084F835002068B8422BD04045A6
:103A200029D0504527D0584525D09E49884222D0DC
:103A30009C49183188421ED09A49303188421AD0A8
:103A400098494831884216D0484514D09649884252
:103A500011D09549183188420DD0934930318842B0
:103A600009D091494831884205D08F496031884258
:103A700001D08D497831016821F001010160216890
:103A80000098019A401C0090904202D80868C00734
:103A9000F6D10868C00710D003200FE0FFE70168E7
:103AA000C905ACD4016821F010010160012084F83F
:103AB0003500002084F83400A1E7012084F83500A7
:103AC000002084F83400E16C00291DD002B02046AB
:103AD000BDE8F05F0847754988421DD0734914312D
:103AE000884219D071492831884215D06F493C313C
:103AF000884211D06D49503188420DD06B496431F4
:103B0000884209D0694900E084E07831884203D0D6
:103B100066498C3188427DD101684FF0040894F8E1
:103B20005C6006F01F0608FA06F818EA020FCDF8E6
:103B3000008047D05FEA417844D500986860080467
:103B400003D5C8033CD4A16CBEE7880638D42068EE
:103B5000B8422DD053494839884229D0504527D002
:103B6000584525D04F49884222D04E4918318842C5
:103B70001ED04C49303188421AD04A4948318842D7
:103B800016D0484514D04849884211D046491831CA
:103B900088420DD044493031884209D0704507D061
:103BA000984205D0604503D03F499031884203D107
:103BB000016821F0080102E0016821F004010160C0
:103BC000216C81E74FF0020808FA06F818EA020FA4
:103BD000CDF800804FD05FEA81784CD500986860BE
:103BE000080403D5C80344D4616C6DE7880640D44B
:103BF0002068B8422FD02B49483988422BD05045F5
:103C000029D0584527D02749884224D02549183142
:103C1000884200E043E01ED02249303188421AD069
:103C200020494831884216D0484514D01E49884260
:103C300011D01D49183188420DD01B4930318842BE
:103C400009D0704507D0984205D0604503D0164989
:103C50009031884203D1016821F0140102E001682B
:103C600021F00A010160012084F83500002084F869
:103C70003400E16B28E70823B34013420FD0090753
:103C80000DD5016821F00E01016094F85C0000F090
:103C90001F01012000FA01F1696060650EE7BDE8CF
:103CA000FC9F0000700002402804024008540258A3
:103CB0002DE9F05F044601F0DDF90646F4B3E24F6A
:103CC0000222DFF884830025DFF87C93DFF878A3F5
:103CD00008F13008DFF870B309F1480920680AF1EB
:103CE000600A0BF1780BB84234D0D74918318842BA
:103CF00030D040452ED048452CD050452AD058458C
:103D000028D0D1499031884224D0CF49A831884267
:103D100020D0CE4988421DD0CC491831884219D0D4
:103D2000CA493031884215D0C8494831884211D03B
:103D3000C649603188420DD0C44900E042E0783184
:103D4000884207D0C1499031884203D0BF49A83189
:103D500088427CD184F83520B84284F834502CD085
:103D6000B9491831884228D0404526D0484524D04A
:103D7000504522D0584520D0B349903188421CD0BC
:103D8000B149A831884218D0B049884215D0AF490E
:103D90001831884211D0AD49303188420DD0AB493D
:103DA0004831884209D0A9496031884205D0A749E5
:103DB0007831884201D0A5499031016821F0010194
:103DC000016009E00120BDE8F09F01F053F9801B7C
:103DD000052801D9202015E120680068C007F4D12A
:103DE000226811689A480140D4E902031843D4E9D3
:103DF000043633431843A3691843E3691843236A1D
:103E000018430843616A042903D1D4E90B13194309
:103E10000843904909686FF30F01B1F1005F0FD3B8
:103E20006168A1F12903052B08D9163B032B05D99D
:103E3000083B012B02D94F39032901D840F48010E7
:103E400010602068406920F00701606A00E01CE013
:103E5000042840EA01060BD1A06A0643E06A38B1A3
:103E60002046FDF727FF18B1402060650120CBE018
:103E7000206846612046FDF733FE94F85C1001F09F
:103E80001F023F219140816056E0734988421BD058
:103E9000714B1433984217D06F4B2833984213D08C
:103EA0006D4B3C3398420FD06B4B503398420BD044
:103EB000694B6433984207D0674B7833984203D0FC
:103EC000654B8C3398427DD1884201D062491431D0
:103ED00084F8352084F83450026860490A40A168AB
:103EE000402970D080296FD00021E36841EAD301D6
:103EF000236941EAD301636941EAD301A36941EA35
:103F0000D301E36941EAD301236A41EA1311114362
:103F1000016051492068494208441421B0FBF1F086
:103F20008000E0652046FDF7DBFD94F85C1001F0B1
:103F30001F020121914041602068B84255D042499A
:103F40001831884251D040454FD048454DD050455A
:103F50004BD0584549D03C499031884245D03A49E8
:103F6000A831884241D0394988423ED0374918317A
:103F700088423AD035493031884236D033494831C9
:103F8000884232D03149603188422ED02F49783171
:103F900088422AD02D499031884226D02B49A83119
:103FA000884222D02C4988421FD02B4914318842A4
:103FB0001BD029492831884217D027493C318842F3
:103FC00013D002E01DE017E018E023495031884289
:103FD0000BD021496431884207D01F49783188428B
:103FE00003D01D498C31884228D12046FDF7D4FDED
:103FF000A06880280BD00BE0102176E74FF48041B9
:1040000073E740206065032084F83500DAE66560D8
:10401000216E20790860D4E9190141606068401E72
:10402000072808D82046FDF707FEE06E0560D4E9B2
:104030001C01416002E0E566256765676565012052
:1040400084F835000020BEE6100002401004024053
:104050003F8010FE0010005C085402580F00FEFF65
:104060002DE9F84F04004FF00000009014D094F8B0
:104070003400012812D0012084F8340094F835501F
:104080000020012D0CD04FF40061616584F83400EC
:1040900001200090BDE8F88F0120FBE70220F9E73E
:1040A000022584F835506065974D974E964F183528
:1040B000DFF854C23036DFF850824837DFF84892D4
:1040C000DFF844A208F16008DFF83CB209F1780992
:1040D00020680AF1900A0BF1A80B604533D0A84282
:1040E00031D0B0422FD0B8422DD040452BD04845DA
:1040F00029D0504527D0584525D0DFF810C260455B
:1041000021D0DFF808C20CF1180C60451BD0DFF895
:10411000FCC10CF1300C604515D0DFF8F0C10CF19A
:10412000480C60450FD0DFF8E4C10CF1600C60452D
:1041300009D0DFF8D8C10CF1780C604503D0DFF866
:10414000CCC10CF1900CD0F800C02CF0010CC0F8E0
:1041500000C02046FDF7D8FD6B49206888422CD06E
:10416000A8422AD0B04228D0B84226D0404524D018
:10417000484522D0504520D058451ED0634A904231
:104180001BD0624A1832904217D0604A30329042B7
:1041900013D05E4A483290420FD05C4A603290425F
:1041A0000BD05A4A7832904207D0584A9032904207
:1041B00003D0564AA83290420CD1026822F01E0267
:1041C00042F016020260206C88B12068026842F05A
:1041D00008020BE0026822F00E0242F00A020260BE
:1041E000206C20B12068026842F00402026020685E
:1041F00088424BD0A84249D0B04247D0B84245D0BF
:10420000404543D0484541D050453FD058453DD02A
:104210003E4A90423AD03D4A1832904236D03B4A0C
:104220003032904232D0394A483290422ED0374A0A
:10423000603290422AD0354A7832904226D0334AB2
:104240009032904222D0314AA83290421ED0304A59
:1042500090421BD02E4A1432904217D02C4A28325A
:10426000904213D02A4A3C3290420FD0284A503212
:1042700090420BD0264A6432904207D0244A7832CA
:10428000904203D0224A8C3290420DD1206E0268B7
:10429000D20303D5026842F480720260E06E18B166
:1042A000026842F4807202602068884226D0A842E8
:1042B00024D0B04222D0B84220D040451ED048453C
:1042C0001CD050451AD0584518D01049884215D0F6
:1042D0000E491831884211D00C49303188420DD036
:1042E0000A494831884209D008496031884205D0DE
:1042F00006497831884201D004499031016841F083
:10430000010101600098C5E610000240100402405F
:104310000854025870B5044600F0ACFE0546601C17
:1043200002D004480078044400F0A4FE401BA042E0
:10433000FAD370BD2C00002410B590F89830012BF2
:1043400009D0022B07D0D0F89C1041F00201C0F830
:104350009C10012010BD03689C6D0C4203D1DC6DE4
:1043600044F0010404E09C6D31EA04041ED00324EF
:10437000DC658B0505D50368D3F8E0401443C3F82A
:10438000E0404B0505D50368D3F8E4401443C3F877
:10439000E4400068426D074B0B401A4342650648F3
:1043A000026842EA91710160002010BDDC6D44F0AA
:1043B0000204DDE7FFFFCF3F14A8004070B50446BC
:1043C00090F89800022804D0D4F89C0040F008002F
:1043D0000DE02068D0F8C03013F07C5F0BD0D0F82F
:1043E000C4309B020CD5D4F89C0040F40070C4F893
:1043F0009C00012070BDD4F89C0040F02000F6E73E
:10440000D0F8C400C0F3044520462B46FDF77EFFDC
:1044100021680120A840C1F8D000C4F89400002011
:1044200070BD704710B590F89820012A09D0022A73
:1044300007D0D0F89C1041F00201C0F89C10012078
:1044400010BD0B68CA6883B10B69072A43EA42733F
:1044500025D00C7A4A6942EA84724968006F00EB01
:10446000C100C0E90032002010BD072A0DD00C7A2F
:10447000D2064B6943EA84730C8A42EA0442C06E56
:104480004968134340F82130EDE70B8A4FF0605440
:104490008A6942EA0343CA6944EA0222EFE78A6969
:1044A000DBE7704770470000F0B590F898500024A3
:1044B000022D04D0D0F89C1041F008012CE04029D6
:1044C00005D041292CD0056D8D421CD945E00568E9
:1044D000D5F8A06016F4FE0F15D0D5F8A4607606C6
:1044E00016D0D5F8A460F60105D5D5F8A06016F071
:1044F000004F00D50124D5F8A450466FC5F305251B
:104500002C44456C27E0D0F89C1041F0200103E0DA
:10451000D0F89C1041F48071C0F89C100120F0BDCF
:104520000568D5F8B06016F4FE0FECD0D5F8B4608D
:104530007606EDD0D5F8B460F60105D5D5F8B060B3
:1045400016F0004F00D50124D5F8B450866FC5F39E
:1045500005252C44C56C654302E0456DC66F4D438F
:1045600006EB8506356815F080455560356824D022
:1045700025F0604515603568254F05F000559560BC
:10458000356805F000451561B588ADB2D56175682F
:10459000C5F30345D560756805F4801555617568E8
:1045A00005F4001595617568C5F3066515627568B3
:1045B000ED0F55620025083607E0C5F38A45D9E7B7
:1045C00016F805C003F805C06D1CD2F80CC017F82A
:1045D0000CC0AC45F4D8402909D041290BD00122A8
:1045E00020290CD200688A40C0F898200DE00068AD
:1045F000C0F8A84009E00068C0F8B84005E00068CD
:1046000001F01F018A40C0F89C200020F0BD00008E
:10461000A0F30008704700002DE9FE4FB34F044699
:1046200038688007391D096800EA817B2068016DC0
:10463000426D01F470410A400292016D426D01F039
:104640000F0102EA010A016D426D01F0F0010A401A
:104650000192016D426D01F0715102EA0108016D94
:10466000426D01F060710A400092416D056D4FF09E
:104670000009CE43F10509D4E943C90506D4B915AB
:104680000165C7F800902046FFF7C4FF700510D4FD
:10469000E84340050DD42068D0F8DC20D0F8E410C1
:1046A00011404FF480620265C7F80090204600F088
:1046B000BFFABBF1000F0BD08D490BEA0100216856
:1046C00008654FEA9B70386059462046FFF7A9FEFF
:1046D000029850B186490840216808650298800F09
:1046E00038600299204600F0A5FABAF1000F0BD00D
:1046F0007F490AEA0100216808654FEA9A7038602C
:104700005146204600F058FA019850B178490840C7
:10471000216808650198800F38600199204600F0F3
:1047200067FA30050BD4E843000508D421684FF43C
:1047300000600865C7F80090204600F07CFAB005DC
:1047400010D4E84380050DD42068D0F8D820D0F8E4
:10475000E01011404FF400720265C7F80090204647
:1047600000F067FA30030BD4E843000308D4216853
:104770004FF400200865C7F80090204600F01AFAB0
:10478000F0030BD4E843C00308D421684FF4803011
:104790000865C7F80090204600F049FA70030BD472
:1047A000E843400308D421684FF480200865C7F827
:1047B0000090204600F03AFAB0030ED4E84380039C
:1047C0000BD421684FF400300865C7F80090D4F886
:1047D0009C0040F08000C4F89C00009850B144490F
:1047E0000840216808650098800F386000992046CD
:1047F000FFF758FEB8F1000F0DD03D4908EA01005F
:10480000216808654FEA98703860D4F89C0040EA47
:104810000800C4F89C003749206888425CD1606871
:104820008168890758D0016A01F00F02416A11407E
:10483000026A476A02F0300207EA0207026A436A24
:1048400002F4C07203EA0208026A456A02F4FC42FA
:1048500005EA0205026A466A02F4F022D0F82490C2
:1048600006EA0206D0F820A003D00162204600F03C
:10487000DAF92FB1606807623946204600F0D5F9B1
:104880006FEA090040060ED46FEA0A0040060AD417
:104890006068C16BC26B090C4023036202F03F02E7
:1048A000204600F0C1F9B8F1000005D06168086247
:1048B0004146204600F0B6F935B160680562D4F88B
:1048C0009C002843C4F89C0036B160680662D4F8A6
:1048D0009C003043C4F89C00D4F89C00002802D00F
:1048E0002046FFF7DEFDBDE8FE8F000010A8004067
:1048F000FFFFCF3F00A000402DE9F04194B08D496B
:104900004C2204466846FBF714FD64B18A4E2068C9
:10491000B04202D100F58070606094F898004FF0CA
:10492000000820B108E0012014B0BDE8F081204665
:1049300084F8998000F002F92068816921F0100163
:10494000816100F097FB0327054604E000F092FB2D
:10495000401B0A2811D8206880690007F6D4206817
:10496000816941F00101816100F084FB05460DE0A1
:1049700000F080FB401B0A2808D9D4F89C0040F0C6
:104980000100C4F89C0084F89870CCE72068806926
:10499000C007EDD02068816941F002018161207C6F
:1049A00001282068816937D041F040018161607C35
:1049B00001282068816932D021F480418161A07C86
:1049C0000128206881692DD041F4805181612068DF
:1049D0008169A26821F44071114381612068816975
:1049E00021F0A40181612068016921F010010161B9
:1049F000E068012819D010B302281BD02068816913
:104A000041F0800181612068016941F0100101617C
:104A1000E06803280ED012E021F04001C6E741F41F
:104A20008041CBE721F48051D0E72068816941F0D3
:104A3000040103E02068816941F020018161207E4A
:104A40006FF0FF02E169A38A400602EB0121A0F1A9
:104A500000700843216A491E0843110201EB034319
:104A600018432368D861A068B0F5407F10D1D4E91D
:104A70000A03401E02EB03221043226B0B1303EBCD
:104A800002121043A28C01EB024108432168C86066
:104A9000206E30B12068D0F8C010626E1143C0F8AB
:104AA000C010D4E91701C842694609D0206850F8FF
:104AB000C82FA36E22F0070251F823301A43026078
:104AC000206C48B1206850F8BC2F636C22F00702BC
:104AD00051F823301A430260A06C50B1206850F89E
:104AE000BC2FE36C22F0700251F8233042EA03122B
:104AF0000260206D50B1206850F8BC2F636D22F425
:104B0000E06251F8231042EA012101602068B042BE
:104B100004D16068816821F003018160C4F8948049
:104B2000C4F89C80012084F898002046FDF70EFB15
:104B3000FAE60000B0F3000800A0004010B586B00F
:104B4000044614216846FBF70DFC1749206888428B
:104B500028D11648016841F480710160006800F4B2
:104B60008070059011480C38016841F00101016026
:104B70000068694600F0010005904FF4C0500090B5
:104B80000220019000200290039009200490084820
:104B900000F076F900220121132000F02DFB1320F4
:104BA00000F01CFB06B010BD00A00040EC44025811
:104BB000000002587047000010B50A4B02689A4284
:104BC0000FD1C9070DD0084B4021084AFFF76CFCF4
:104BD000002806D1054804490068BDE81040FCF7EC
:104BE0008FBA10BD00A00040E00300246004002440
:104BF000704790F89810012907D0D0F89C1041F028
:104C00000401C0F89C1001207047022180F8981020
:104C100001688A6922F001028A610021C0F89C10B3
:104C20000846704770477047704770477047704735
:104C300070477047704770472DE9F05F0446414860
:104C400089460025017D01291AD00121017582467E
:104C50004FF0000BC0F818B02079C00705D04CF217
:104C60005030FDF7E7FB00B10125207980070AD518
:104C700002214CF25030FDF7DDFB20B101255DE053
:104C80000220BDE8F09F6DBB20682F4F012807D0A0
:104C90004FF0FF31C9F80010A66840F2047848E0F0
:104CA00061682069FDF788FB2079C0070AD00121DF
:104CB0004CF25030FDF7BEFB00B10125F86820F042
:104CC0000800F8602079800738D502214CF2503076
:104CD000FDF7B0FB00B10125D7F80C0120F008006A
:104CE000C7F80C012AE0226930466168FDF742FBF3
:104CF0002079C00709D001214CF25030FDF79AFB12
:104D00000546F86820EA0800F860207980070BD58E
:104D100002214CF25030FDF78DFB0546D7F80C010F
:104D200020EA0800C7F80C0115B1C9F8006005E0D9
:104D3000761CD4E902100844B042D4D828468AF838
:104D400014B09EE7B40A0024002000520A48C1684B
:104D500041F00101C160C168C9070BD0D0F80C1146
:104D600041F00101C0F80C11D0F80C01C00701D0CE
:104D70000020704701207047002000522DE9F05FAD
:104D80002C48154608260C46027D012A08D001222F
:104D900002757304A1F100629A4204D2012707E070
:104DA0000220BDE8F09FA4F1016199420DD20227D3
:104DB0004FF0000A8146C0F818A04CF2503B39462B
:104DC0005846FDF737FB10B127E00120E9E7DFF88F
:104DD0006880012F404623D0D0F80C1141F0020129
:104DE000C0F80C11BFF36F8FBFF34F8F01CD01C41B
:104DF000761E16F0FF06F9D1BFF36F8FBFF34F8F0A
:104E000039465846FDF716FB012F41460DD0D1F823
:104E10000C2122F00202C1F80C2189F814A0C0E78D
:104E2000C16841F00201C160DCE7CA6822F00202F9
:104E3000CA60F2E7B40A0024002000520D48C1689D
:104E40000D4ACB070D4904D042604160C368DB07BF
:104E50000BD1D0F80C31DB0709D0C0F80421C0F821
:104E60000411D0F80C01C00701D0012070470020C8
:104E7000704700000020005223016745AB89EFCD49
:104E80002DE9F84F694C00224FF0B04A4FF0010B6A
:104E90004FF003084FF00F09C0E00BFA02F6334061
:104EA00073D00D7905F00305012D01D0022D15D128
:104EB0008768550008FA05FC27EA0C07D1F80CC0F2
:104EC0000CFA05FC4CEA070CC0F808C04568B5436D
:104ED0000E79C6F3001696402E4346600D79ED43D9
:104EE000AD0708D0C668550008FA05F7BE438F68BD
:104EF000AF403743C7600D7905F00305022D11D18E
:104F0000D50800EB85073E6A5507ED0E09FA05FC4A
:104F100026EA0C06D1F810C00CFA05FC4CEA060C87
:104F2000C7F820C00668550008FA05F7BE430F7998
:104F300007F00307AF40374307604D6815F4403F63
:104F40006BD03B4D2E6846F002062E602D6822F095
:104F5000030606F1B04605F002050095D6F8087480
:104F600095074FEA157C09FA0CF5AF43314DA8427D
:104F700001D100252EE0304DA84201D1012529E0C4
:104F80002E4DA84202D1022524E046E02C4DA84235
:104F900001D103251EE02B4DA84201D1042519E0C3
:104FA000294DA84201D1052514E0284DA84201D180
:104FB00006250FE0264DA84201D107250AE0254D20
:104FC000A84201D1082505E0234DA84201D10925B9
:104FD00000E00A2505FA0CF53D43C6F80854DAF856
:104FE000005056464F689D43FF0200D51D43356073
:104FF00075684F689D43BF0200D51D4375606568A5
:105000004E689D43B60300D51D43656025684E6814
:105010009D43F60300D51D432560521C0B6833FAEF
:1050200002F57FF43AAFBDE8F88F00008000005829
:10503000F4440258000002580004025800080258C4
:10504000000C0258001002580014025800180258B0
:10505000001C025800200258002402580AB1816145
:1050600070470904FBE7000001480068000C704726
:105070000010005C01488068704700002C0000248C
:105080000248816802781144816070472C00002436
:10509000032010B500F0D0F801F0C2FA0F4A1168F1
:1050A0001268C1F303230E49CB5C03F01F03D84001
:1050B00002F00F02895C0B4A01F01F0120FA01F196
:1050C0001160094908600F2000F010F808B10120B4
:1050D00010BD00F075F8002010BD00001844025803
:1050E00024F400083C0000243800002470B50D4D65
:1050F00004462A78A2B14FF47A700B49B0FBF2F063
:105100000968B1FBF0F001F0DAFD48B9102C07D2C4
:1051100000222146501E00F06FF800206C6070BD28
:10512000012070BD2C00002438000024134A41786F
:105130001160124908310A6822F001020A600B1F4F
:1051400042681A60027BC37A120742EA0362837ADA
:1051500042EAC342437B42EA8342837B42EA4342C0
:10516000C37B42EA0342437A42EA0322037A00788D
:1051700042EA430202430A607047000098ED00E0F3
:10518000BFF35F8F0448016821F480310160024958
:10519000002070310860704724ED00E0074940F0BE
:1051A0000100086005487038016841F480310160F1
:1051B000BFF34F8FBFF36F8F7047000094ED00E097
:1051C000054808B5016841F002010160006800F07F
:1051D0000200009008BD0000F4440258002809DBDA
:1051E000012100F01F0291404009800000F1E02001
:1051F000C0F80011704700000E4BF0B41B68C3F3F9
:105200000223C3F10704042C00D904241D1D072D1B
:1052100001D2002300E0DB1E012606FA04F56D1E14
:105220000D409D409E40761E164045EA0601F0BCAA
:1052300006F035BE0CED00E0064A00F007011068EC
:105240004FF6FF03184040EA01200349084310606D
:10525000704700000CED00E00000FA05124970B53F
:105260000A68D243520705D5096801F00701814257
:1052700012D117E00A6822F0070202430A60FFF722
:10528000F9FE094D4FF47A760446083D06E0FFF733
:10529000F1FE001BB04201D9012070BD2868C04357
:1052A0008004F4D4002070BD0C48025810B501F001
:1052B00071F905490968054AC1F30211515C01F011
:1052C0001F01C84010BD00002044025824F400080B
:1052D0004F4910B50A68096802F003024C4B1B1DC8
:1052E000C1F305111B684A4C03F001030C34246818
:1052F0000029C4F3CC0414FB03F300EE103AB8EE1B
:10530000400A7FD09FED431A9FED432A404BF7EEB2
:10531000000A083322B1012A66D0022A22D16AE0AB
:105320003B4A283A1468A4061CD51268C2F3C1048B
:105330003A4AE24001EE902AF8EE612A01EE901A14
:10534000F8EE611A196882EEA12AC1F3080101EE94
:10535000901AF8EE611A40EE011A31EEA00A22EE20
:10536000000A12E001EE901A1968F8EE611AC2EE16
:10537000212AC1F3080101EE901AF8EE611A40EEFD
:10538000011A31EEA00A22EE800A1968C1F3462103
:1053900001EE101AB8EE411A31EE201AC0EE011AD1
:1053A000BCEEE11A80ED001A1968C1F3064101EE66
:1053B000101AB8EE411A31EE201AC0EE011ABCEEF6
:1053C000E11A80ED011A1968C1F3066101EE101AA5
:1053D000B8EE411A71EE200A80EE201ABCEEC10A26
:1053E00080ED020A10BD0DE001EE901ADFED0C2AEF
:1053F000F8EE611AA6E701EE901ADFED0A2AF8EE40
:10540000611A9FE70021016041608160EAE70000C6
:1054100028440258000000390024744C0090D00346
:105420000024744A20BCBE4B484910B50A6809687C
:1054300002F00302454B1B1DC1F305311B68434CB1
:105440001434C3F300132468C4F3CC0414FB03F333
:1054500000EE103AB8EE400AE9B33C4B9FED3C1A1F
:105460001033F7EE000A62B1DFED3A1A012A01D0DB
:10547000022A5ED002EE101AF8EE422A81EEA22A2B
:105480001AE0324A283A1468A4060DD51268C2F30D
:10549000C104314AE24001EE902AF8EE612A01EEA1
:1054A000901AF8EE611A05E001EE901ADFED2B2A52
:1054B000F8EE611A82EEA12A1968C1F3080101EE23
:1054C000901A1968F8EE611A40EE011A31EEA00A3E
:1054D00022EE000A00E033E0C1F3462101EE101A8B
:1054E000B8EE411A31EE201AC0EE011ABCEEE11AF4
:1054F00080ED001A1968C1F3064101EE101AB8EEEA
:10550000411A31EE201AC0EE011ABCEEE11A80ED0C
:10551000011A1968C1F3066101EE101AB8EE411ABA
:1055200071EE200A80EE201ABCEEC10A80ED020A5C
:1055300010BD01EE901ADFED0A2AF8EE611AB9E704
:10554000002101604160816010BD000028440258C4
:10555000000000390024744A0090D0030024744CE9
:1055600020BCBE4B484910B50A68096802F0030226
:10557000454B1B1DC1F305511B68434C1C34C3F341
:1055800000232468C4F3CC0414FB03F300EE103AA8
:10559000B8EE400AE9B33C4B9FED3C1A1833F7EEE6
:1055A000000A62B1DFED3A1A012A01D0022A5ED068
:1055B00002EE101AF8EE422A81EEA22A1AE0324ACE
:1055C000283A1468A4060DD51268C2F3C104314A02
:1055D000E24001EE902AF8EE612A01EE901AF8EE10
:1055E000611A05E001EE901ADFED2B2AF8EE611A40
:1055F00082EEA12A1968C1F3080101EE901A196818
:10560000F8EE611A40EE011A31EEA00A22EE000A0D
:1056100000E033E0C1F3462101EE101AB8EE411A62
:1056200031EE201AC0EE011ABCEEE11A80ED001A2C
:105630001968C1F3064101EE101AB8EE411A31EEB5
:10564000201AC0EE011ABCEEE11A80ED011A1968A9
:10565000C1F3066101EE101AB8EE411A71EE200A8C
:1056600080EE201ABCEEC10A80ED020A10BD01EEE8
:10567000901ADFED0A2AF8EE611AB9E700210160FD
:105680004160816010BD00002844025800000039CC
:105690000024744A0090D0030024744C20BCBE4BFC
:1056A0002DE9F04FB24C80F48078B04A89B0DFF831
:1056B000BCA24FF080572511AE4BDFF8BC92503A98
:1056C00058EA0108AAF104064FF0005C33D080F4D8
:1056D000007858EA01085DD0DFF890B280F4806865
:1056E00058EA01080BF1080B66D080F4006858EA0C
:1056F000010878D080F4805858EA01086BD080F413
:10570000005858EA01084FF480394FF4003E77D032
:1057100080F4002858EA010873D080F4803858EAF1
:1057200001086FD080F480460E436CD080F40040B6
:10573000084369D02AE0DAF8000000F007000528E5
:1057400024D2DFE800F08FB97D25AE0006A8FFF770
:10575000BFFD079809B0BDE8F08F6846FFF764FE0B
:105760000098F7E703A8FFF7FDFE0398F2E710683B
:10577000C0F3C10024FA00F0ECE71168C90572D546
:10578000B84270D12846E5E71846E3E70020E1E794
:105790004846DFE7DAF8000000F4E07080284FD0D8
:1057A00004DC00285ED04028F0D185E0C028EFD08E
:1057B000B0F5807FEAD174E0DBF8000000F460000F
:1057C000B0F5800F3CD007DC00284BD0B0F5001FAF
:1057D000DCD171E007E01FE0B0F5C00FD8D0B0F524
:1057E000000FD3D15DE0DBF8000000F0E060B0F125
:1057F000007F25D009DCA8B3B0F1807FC6D15BE083
:1058000022E045E06AE077E09AE0B0F1407FBFD067
:10581000B0F1806FBAD144E0DAF8000000F4E04063
:10582000B0F5005F0CD004DCE0B1B0F5805FADD125
:1058300042E0B0F5405FABD0B0F5804FA6D130E08C
:1058400010688000A2D58DE7DAF8000000F4E020AF
:10585000B0F5403F6BD007DC68B1484579D0704562
:1058600094D156E07DE033E0B0F5802F63D0B0F501
:10587000A02F8BD171E000F0AFFE6BE76846FFF719
:10588000D3FD019866E703A8FFF76CFE049861E773
:10589000DBF8000010F440300ED0484510D07045C1
:1058A00088D13068116800F0405049077FF565AF36
:1058B00000287FF462AF5AE710680001C2D54CE7B8
:1058C00010688000BED503A8FFF74CFE059841E79D
:1058D00011688903B6D5604590D155E7306810F45A
:1058E00080303ED0484589D110680001AAD568466D
:1058F000FFF79AFD02982DE7DBF8000000F0E0408A
:10590000B0F1405F13D008DC70B1B84221D06045DF
:105910008DD110688000B6D438E7B0F1804F0AD03E
:10592000B0F1A04FF8D118E0FFF7C0FC12E7106803
:105930004007F1D51BE71068C005EDD522E708E068
:10594000DAF8000010F0405007D0B84209D06045A6
:10595000E2D11068000191D418E710688003DBD50C
:1059600012E710688001D7D5F0E6000050440258D5
:105970000090D00340787D010080BB002DE9FC5FE2
:10598000044600680025FA4FC043DFF8E8832E463E
:10599000010104F10800019004F1280000901DD4D9
:1059A000A06E50B1B0F5801F0CD0B0F5001F0ED026
:1059B000B0F5401F1ED001250FE0386840F40030DC
:1059C000386017E00198022103F0F8FA03E000982C
:1059D000022103F07DFB05000CD02E462088C04339
:1059E000C00523D4A06D05281ED2DFE800F00C11FD
:1059F000161B1B00D8F80010A26E21F440111143B1
:105A0000C8F80010EAE7386840F40030386009E070
:105A10000198002103F0D2FA03E00098002103F07E
:105A200057FB054675B100E001252E462088C0438E
:105A3000800528D4E06D80281ED00CDC90B1402871
:105A40000ED114E0D8F80010A26D21F00701114327
:105A5000C8F80010EAE7C02813D0B0F5807F10D056
:105A600001250FE0386840F40030386009E0019803
:105A7000002103F0A3FA03E00098002103F028FBC3
:105A800005468DB12E462088DFF8EC92C0434005D4
:105A90002CD4D4F8A800B0F5800F20D00DDCA0B134
:105AA000B0F5001F0FD115E0D8F80010E26D21F419
:105AB000E0711143C8F80010E5E7B0F5C00F13D04E
:105AC000B0F5000F10D001250FE0386840F4003029
:105AD000386009E00198002103F070FA03E00098B3
